:020000040000FA
:0400000007EF00F016
:1000080009824DED00F08EEF00F0000E896E000EB3
:100018008A6E000E8B6E000E8C6E000E8D6E000EBA
:100028008E6E000E8F6E000E956E010E936E000E92
:10003800996E000E9A6E0F0E906E7F0E916E000EE6
:10004800F26EF28EF28EF28AF288F292F294870EB3
:10005800D56E670ED76E690ED66EF2A436EF00F035
:1000680038EF00F031EF00F0880ED56E3C0ED76EF9
:10007800AF0ED66E000E086E000E076E000E066EEE
:10008800000E056E000E046E000E036E8C808C8EC2
:1000980012000600F2A453EF00F055EF00F084EFD1
:1000A80000F0F2943C0ED76EAF0ED66E074A082ABF
:1000B800640E07180810D8A464EF00F066EF00F08B
:1000C80068EF00F099EC00F0054A062A460E05187C
:1000D8000610D8A472EF00F074EF00F076EF00F08D
:1000E800A7EC00F0034A042AC80E03180410D8A489
:1000F80080EF00F082EF00F084EF00F0A6EC00F053
:10010800F2A289EF00F08BEF00F08CEF00F0F29292
:100118000992110000EE01F0080EEE6AE806FDE112
:10012800099009920001A0EF00F0000E086E000E81
:10013800076E8C908C80120009EC00F0A2EF00F0A2
:0801480007EF00F012001200A5
:020000040020DA
:08000000FFFFFFFFFFFFFFFF00
:020000040030CA
:0E000000FF06191EF38381FFFFC0FFE0FF40E3
:00000001FF
