:020000040000FA
:0400000007EF00F016
:0A0008004D8237ED15F0C4EF18F03B
:10100000003F065B4F666D7D077F6F53554200457D
:0F1010004E440050524B0045585400474F0000CB
:101020008C0E0F6E000E106E1B0E116E100E126ED7
:10103000000E146E020E136E03EC19F00F50101018
:10104000D8B425EF08F027EF08F02EEF08F0000ED7
:10105000476E010E466ED58EA2EF10F08C0E0F6E0D
:10106000000E106E0F0E116E100E126E000E146E2A
:10107000030E136E03EC19F00F501010D8B443EFA9
:1010800008F045EF08F04BEF08F0000E476E000E39
:10109000466EA2EF10F08C0E0F6E000E106E130E47
:1010A000116E100E126E000E146E030E136E03EC12
:1010B00019F00F501010D8B460EF08F062EF08F08C
:1010C00095EF0AF046504710D8B469EF08F06BEF7F
:1010D00008F095EF0AF02F0E00018F6572EF08F00F
:1010E00074EF08F0A2EF10F0390E8F657AEF08F078
:1010F0007CEF08F080EF08F0A2EF10F0A2EF10F004
:101100002F0E906586EF08F088EF08F0A2EF10F040
:10111000390E90658EEF08F090EF08F092EF08F02E
:10112000A2EF10F02F0E916598EF08F09AEF08F0FB
:10113000A2EF10F0390E9165A0EF08F0A2EF08F0D1
:10114000A4EF08F0A2EF10F08F51640DF3CF25F05B
:10115000F4CF26F090510A0DF3502526F4502622A4
:1011600091512526000E2622300E2524A46FEB0E69
:101170002620A56FAB0E156E000E166EAC0E176E08
:10118000000E186EA4C019F0A5C01AF03EEC13F0C2
:1011900015501610D8B4CFEF08F0D1EF08F0BFEF1C
:1011A00009F0ACC025F0ADC026F0D8902536263623
:1011B000D89025362636D890253626360001AB51F4
:1011C000530DF40E276EEA0E286E000E296E030EE4
:1011D0002A6E2750292628502A22F3502926F45017
:1011E0002A2225502924D96E26502A20DA6E4BC097
:1011F000DEFF4CC0DDFFACC025F0ADC026F0D890BE
:1012000025362636D89025362636D89025362636E9
:10121000AB51530DF60E276EEA0E286E000E296EA6
:10122000030E2A6E2750292628502A22F3502926F9
:10123000F4502A2225502924D96E26502A20DA6E0D
:10124000010EDE6E000EDD6EAB51530D400EF32429
:10125000D96EEE0EF420DA6EDE06000EDD5A23EEB5
:1012600000F0DE06000EDD5AAC4BAD2B010E1D6EFC
:10127000240E41EC19F0010E1D6E530E41EC19F0D5
:10128000010E1D6E500E41EC19F0010E1D6E430E45
:1012900041EC19F0010E1D6E000E126E640E116EFF
:1012A000A4C00FF0A5C010F090EC16F00FC017F01E
:1012B00010C018F0000E1A6E0A0E196EF2EC16F03D
:1012C0001750300F41EC19F0010E1D6E000E126E1A
:1012D0000A0E116EA4C00FF0A5C010F090EC16F02D
:1012E0000FC017F010C018F0000E1A6E0A0E196E1B
:1012F000F2EC16F01750300F41EC19F0010E1D6E94
:10130000A4C017F0A5C018F0000E1A6E0A0E196ED0
:10131000F2EC16F01750300F41EC19F0010E1D6E73
:101320000001AB5141EC19F0010E1D6EACC00FF085
:10133000ADC010F0000E126E0A0E116E90EC16F099
:101340000F50300F41EC19F0010E1D6EACC017F0BC
:10135000ADC018F0000E1A6E0A0E196EF2EC16F0FF
:101360001750300F41EC19F0010E1D6E230E41ECA9
:1013700019F0000E376E010E366EA2EF10F0A4C009
:101380000FF0A5C010F065EC1AF023EE00F0010E8E
:10139000DBBED4EF09F0010EDB5008E1DE04D8A07B
:1013A000D4EF09F0D6EF09F0A2EF10F0000183BFEF
:1013B000E2EF09F0835108E18205D8A0E2EF09F0DD
:1013C000E4EF09F0A2EF10F09FEC17F00FC038F037
:1013D00010C039F0AB0E156E000E166EAC0E176E07
:1013E000000E186E38C019F039C01AF0A3EC10F0D6
:1013F00015501610D8B4FFEF09F001EF0AF08DEF89
:101400000AF00001AC4BAD2BAFEC1AF0010E1D6ED3
:10141000240E41EC19F0010E1D6E530E41EC19F033
:10142000010E1D6E500E41EC19F0010E1D6E430EA3
:1014300041EC19F0010E1D6E000E126E640E116E5D
:1014400038C00FF039C010F090EC16F00FC017F054
:1014500010C018F0000E1A6E0A0E196EF2EC16F09B
:101460001750300F41EC19F0010E1D6E000E126E78
:101470000A0E116E38C00FF039C010F090EC16F063
:101480000FC017F010C018F0000E1A6E0A0E196E79
:10149000F2EC16F01750300F41EC19F0010E1D6EF2
:1014A00038C017F039C018F0000E1A6E0A0E196E07
:1014B000F2EC16F01750300F41EC19F0010E1D6ED2
:1014C0000001AB5141EC19F0010E1D6EACC00FF0E4
:1014D000ADC010F0000E126E0A0E116E90EC16F0F8
:1014E0000F50300F41EC19F0010E1D6EACC017F01B
:1014F000ADC018F0000E1A6E0A0E196EF2EC16F05E
:101500001750300F41EC19F0010E1D6E230E41EC07
:1015100019F0ACEC1AF0B9EF09F038C00FF039C08F
:1015200010F065EC1AF0A2EF10F08C0E0F6E000EAA
:10153000106E170E116E100E126E000E146E030E4A
:10154000136E03EC19F00F501010D8B4AAEF0AF084
:10155000ACEF0AF07DEF0EF046504710D8B4B3EF71
:101560000AF0B5EF0AF07DEF0EF000018F51640D27
:10157000F3CF25F0F4CF26F090510A0DF350252635
:10158000F450262291512526000E2622300E2524C5
:10159000A96FEB0E2620AA6F2F0E8F65D2EF0AF0EF
:1015A000D4EF0AF0A2EF10F0390E8F65DAEF0AF0EF
:1015B000DCEF0AF0DEEF0AF0A2EF10F02F0E9065DC
:1015C000E4EF0AF0E6EF0AF0A2EF10F0390E9065B2
:1015D000ECEF0AF0EEEF0AF0F0EF0AF0A2EF10F0F5
:1015E0002F0E9165F6EF0AF0F8EF0AF0A2EF10F077
:1015F000390E9165FEEF0AF000EF0BF002EF0BF0F1
:10160000A2EF10F0A9C015F0AAC016F0B00E176E28
:10161000000E186EAE0E196E000E1A6EF6EC13F078
:10162000AEC025F0AFC026F0D89025362636D8902B
:1016300025362636D890253626360001B051530D72
:10164000F20E276EEA0E286E000E296E030E2A6E29
:101650002750292628502A22F3502926F4502A22DE
:1016600025502924D96E26502A20DA6EDE04DE1099
:10167000D8A43DEF0BF03FEF0BF00FEF0CF0AEC036
:1016800025F0AFC026F0D89025362636D8902536DE
:101690002636D89025362636B051530DF40E276ED7
:1016A000EA0E286E000E296E030E2A6E2750292698
:1016B00028502A22F3502926F4502A222550292482
:1016C000D96E26502A20DA6E000EDE6E000EDD6E18
:1016D000AEC025F0AFC026F0D89025362636D8907B
:1016E00025362636D89025362636B051530DF60EBF
:1016F000276EEA0E286E000E296E030E2A6E275002
:10170000292628502A22F3502926F4502A2225502F
:101710002924D96E26502A20DA6E000EDE6E000EC5
:10172000DD6EB051530D400EF324D96EEE0EF42051
:10173000DA6EDE2A000EDD2223EE00F0DE2A000E35
:10174000DD22010E1D6E240E41EC19F0010E1D6EFE
:10175000460E41EC19F0010E1D6E450E41EC19F0DC
:10176000010E1D6E450E41EC19F0010E1D6E000EAE
:10177000126E640E116EA9C00FF0AAC010F090ECAA
:1017800016F00FC017F010C018F0000E1A6E0A0EF7
:10179000196EF2EC16F01750300F41EC19F0010EF3
:1017A0001D6E000E126E0A0E116EA9C00FF0AAC0B7
:1017B00010F090EC16F00FC017F010C018F0000EEB
:1017C0001A6E0A0E196EF2EC16F01750300F41EC3B
:1017D00019F0010E1D6EA9C017F0AAC018F0000E76
:1017E0001A6E0A0E196EF2EC16F01750300F41EC1B
:1017F00019F0010E1D6E300E41EC19F0010E1D6E38
:10180000300E41EC19F0010E1D6E300E41EC19F056
:10181000010E1D6E230E41EC19F0B9EF09F0AEC0B8
:1018200025F0AFC026F0D89025362636D89025363C
:101830002636D89025362636B051530DF40E276E35
:10184000EA0E286E000E296E030E2A6E27502926F6
:1018500028502A22F3502926F4502A2225502924E0
:10186000D96E26502A20DA6EDECF2BF0DDCF2CF099
:101870002B504B5C0F6E2C504C58106E000E126E9D
:10188000FA0E116EB7EC19F0010E0F240001A06FD3
:10189000000E1020A16FA0518A27A1518B23AEC04A
:1018A00025F0AFC026F0D89025362636D8902536BC
:1018B0002636D89025362636B051530DF40E276EB5
:1018C000EA0E286E000E296E030E2A6E2750292676
:1018D00028502A22F3502926F4502A222550292460
:1018E000D96E26502A20DA6E000EDE6E000EDD6EF6
:1018F000AEC025F0AFC026F0D89025362636D89059
:1019000025362636D89025362636B051530DF60E9C
:10191000276EEA0E286E000E296E030E2A6E2750DF
:10192000292628502A22F3502926F4502A2225500D
:101930002924D96E26502A20DA6E000EDE6E000EA3
:10194000DD6EB051530D400EF324D96EEE0EF4202F
:10195000DA6EDE2A000EDD2223EE00F0DE2A000E13
:10196000DD22010E1D6E240E41EC19F0010E1D6EDC
:10197000460E41EC19F0010E1D6E450E41EC19F0BA
:10198000010E1D6E450E41EC19F0010E1D6E000E8C
:10199000126E640E116EA9C00FF0AAC010F090EC88
:1019A00016F00FC017F010C018F0000E1A6E0A0ED5
:1019B000196EF2EC16F01750300F41EC19F0010ED1
:1019C0001D6E000E126E0A0E116EA9C00FF0AAC095
:1019D00010F090EC16F00FC017F010C018F0000EC9
:1019E0001A6E0A0E196EF2EC16F01750300F41EC19
:1019F00019F0010E1D6EA9C017F0AAC018F0000E54
:101A00001A6E0A0E196EF2EC16F01750300F41ECF8
:101A100019F0010E1D6E000E126E640E116EA0C044
:101A20000FF0A1C010F090EC16F00FC017F010C02E
:101A300018F0000E1A6E0A0E196EF2EC16F017501E
:101A4000300F41EC19F0010E1D6E000E126E0A0EE1
:101A5000116EA0C00FF0A1C010F090EC16F00FC0F6
:101A600017F010C018F0000E1A6E0A0E196EF2EC84
:101A700016F01750300F41EC19F0010E1D6EA0C08A
:101A800017F0A1C018F0000E1A6E0A0E196EF2ECD3
:101A900016F01750300F41EC19F0010E1D6E230E99
:101AA00041EC19F0000183BF5EEF0DF0835108E1B6
:101AB0008205D8A05EEF0DF060EF0DF0B9EF09F0F0
:101AC0009FEC17F00FC038F010C039F0AEC025F011
:101AD000AFC026F0D89025362636D8902536263643
:101AE000D890253626360001B051530DF00E276EE2
:101AF000EA0E286E000E296E030E2A6E2750292644
:101B000028502A22F3502926F4502A22255029242D
:101B1000D96E26502A20DA6E38C0DEFF39C0DDFFCC
:101B2000AEC025F0AFC026F0D89025362636D89026
:101B300025362636D89025362636B051530DF40E6C
:101B4000276EEA0E286E000E296E030E2A6E2750AD
:101B5000292628502A22F3502926F4502A222550DB
:101B60002924D96E26502A20DA6E4BC0DEFF4CC0E5
:101B7000DDFFAEC025F0AFC026F0D8902536263662
:101B8000D89025362636D89025362636B051530DB6
:101B9000F60E276EEA0E286E000E296E030E2A6ED0
:101BA0002750292628502A22F3502926F4502A2289
:101BB00025502924D96E26502A20DA6E010EDE6EB9
:101BC000000EDD6EB051530D400EF324D96EEE0EB3
:101BD000F420DA6EDE06000EDD5A23EE00F0DE069B
:101BE000000EDD5AAE4BAF2B010E1D6E240E41ECE4
:101BF00019F0010E1D6E530E41EC19F0010E1D6E11
:101C0000500E41EC19F0010E1D6E430E41EC19F01F
:101C1000010E1D6E000E126E640E116E38C00FF0B4
:101C200039C010F090EC16F00FC017F010C018F08B
:101C3000000E1A6E0A0E196EF2EC16F01750300FE5
:101C400041EC19F0010E1D6E000E126E0A0E116E9F
:101C500038C00FF039C010F090EC16F00FC017F03C
:101C600010C018F0000E1A6E0A0E196EF2EC16F083
:101C70001750300F41EC19F0010E1D6E38C017F0EF
:101C800039C018F0000E1A6E0A0E196EF2EC16F03A
:101C90001750300F41EC19F0010E1D6E0001B051CC
:101CA00041EC19F0010E1D6EAEC00FF0AFC010F088
:101CB000000E126E0A0E116E90EC16F00F50300FDF
:101CC00041EC19F0010E1D6EAEC017F0AFC018F058
:101CD000000E1A6E0A0E196EF2EC16F01750300F45
:101CE00041EC19F0010E1D6E230E41EC19F0000EAF
:101CF000376E010E366EB9EF09F08C0E0F6E000EC6
:101D0000106E0B0E116E100E126E000E146E030E7E
:101D1000136E03EC19F00F501010D8B492EF0EF0C0
:101D200094EF0EF07EEF08F046504710D8B49BEFCA
:101D30000EF09DEF0EF07EEF08F000018F51640D64
:101D4000F3CF25F0F4CF26F090510A0DF35025265D
:101D5000F450262291512526000E2622300E2524ED
:101D6000A26FEB0E2620A36F2F0E8F65BAEF0EF039
:101D7000BCEF0EF0A2EF10F0390E8F65C2EF0EF03F
:101D8000C4EF0EF0C6EF0EF0A2EF10F02F0E90652C
:101D9000CCEF0EF0CEEF0EF0A2EF10F0390E906502
:101DA000D4EF0EF0D6EF0EF0D8EF0EF0A2EF10F059
:101DB0002F0E9165DEEF0EF0E0EF0EF0A2EF10F0C7
:101DC000390E9165E6EF0EF0E8EF0EF0EAEF0EF057
:101DD000A2EF10F0410E9219D8B4F1EF0EF0F3EF2C
:101DE0000EF010EF0FF0420E9219D8B4FAEF0EF089
:101DF000FCEF0EF010EF0FF0430E9219D8B403EF82
:101E00000FF005EF0FF010EF0FF0440E9219D8B459
:101E10000CEF0FF00EEF0FF010EF0FF0A2EF10F03D
:101E2000300E9319D8B417EF0FF019EF0FF024EF1D
:101E30000FF0310E9319D8B420EF0FF022EF0FF00E
:101E400024EF0FF0A2EF10F02F0E94652AEF0FF0A1
:101E50002CEF0FF0A2EF10F0390E946532EF0FF077
:101E600034EF0FF036EF0FF0A2EF10F092C0A6F0B3
:101E700093510A0DF3CF25F0F4CF26F09451252687
:101E8000000E2622F00E2524A76FFD0E2620A86F37
:101E9000A707D8A0A807010E1D6E240E41EC19F06B
:101EA000010E1D6E520E41EC19F0010E1D6E450E15
:101EB00041EC19F0010E1D6E530E41EC19F0010EAC
:101EC0001D6E000E126E640E116EA2C00FF0A3C044
:101ED00010F090EC16F00FC017F010C018F0000EC4
:101EE0001A6E0A0E196EF2EC16F01750300F41EC14
:101EF00019F0010E1D6E000E126E0A0E116EA2C0B8
:101F00000FF0A3C010F090EC16F00FC017F010C047
:101F100018F0000E1A6E0A0E196EF2EC16F0175039
:101F2000300F41EC19F0010E1D6EA2C017F0A3C0D6
:101F300018F0000E1A6E0A0E196EF2EC16F0175019
:101F4000300F41EC19F0A7C025F0A8C026F0D890BA
:101F500025362636D89025362636D890253626368C
:101F60000001A651530DF20E276EEA0E286E000EE8
:101F7000296E030E2A6E2750292628502A22F35054
:101F80002926F4502A2225502924D96E26502A20A9
:101F9000DA6EDE50DE10D8A4D0EF0FF0D2EF0FF0E3
:101FA00091EF10F0A7C025F0A8C026F0D8902536F4
:101FB0002636D89025362636D89025362636A65190
:101FC000530DF40E276EEA0E286E000E296E030ED6
:101FD0002A6E2750292628502A22F3502926F45009
:101FE0002A2225502924D96E26502A20DA6EDE5066
:101FF000DE10D8A4FEEF0FF000EF10F091EF10F01C
:10200000A7C025F0A8C026F0D89025362636D8904F
:1020100025362636D89025362636A651530DF60E8F
:10202000276EEA0E286E000E296E030E2A6E2750C8
:10203000292628502A22F3502926F4502A222550F6
:102040002924D96E26502A20DA6EDE50DE10D8A45C
:102050002CEF10F02EEF10F091EF10F0A7C025F04C
:10206000A8C026F0D89025362636D89025362636B4
:10207000D89025362636A651530DF20E276EEA0E5D
:10208000286E000E296E030E2A6E2750292628502E
:102090002A22F3502926F4502A2225502924D96EC9
:1020A00026502A20DA6E010EDE6E000EDD6EA7C00D
:1020B00025F0A8C026F0D89025362636D8902536AB
:1020C0002636D89025362636A651530DF00E276EAB
:1020D000EA0E286E000E296E030E2A6E275029265E
:1020E00028502A22F3502926F4502A222550292448
:1020F000D96E26502A20DA6EA2C0DEFFA3C0DDFF13
:10210000010E1D6E350E41EC19F0010E1D6E300EE4
:1021100041EC19F0320E00018A27000E8B239BEF51
:1021200010F0010E1D6E300E41EC19F0010E1D6E07
:10213000300E41EC19F0010E1D6E230E41EC19F02A
:10214000B9EF09F01200000E246E000E236E000E8F
:10215000226E000E216E21C01BF022C01CF0D89010
:102160001B361C36D8901B361C36D8901B361C36B6
:1021700023C00FF024C010F0000E126E530E116E2B
:1021800084EC1AF0000E1D6E030E1E6E070E1D2647
:10219000000E1E220F501D2610501E221B501D2403
:1021A000D96E1C501E20DA6EDE50DE10D8A4DBEF94
:1021B00010F0DDEF10F004EF12F021C01BF022C090
:1021C0001CF0D8901B361C36D8901B361C36D89085
:1021D0001B361C3623C00FF024C010F0000E126E08
:1021E000530E116E84EC1AF0000E1D6E030E1E6E5F
:1021F000050E1D26000E1E220F501D2610501E22F9
:102200001B501D24D96E1C501E20DA6EDE50DE10CD
:10221000D8A40DEF11F00FEF11F004EF12F021C070
:102220001BF022C01CF0D8901B361C36D8901B36F1
:102230001C36D8901B361C3623C00FF024C010F07B
:10224000000E126E530E116E84EC1AF0000E1D6E0D
:10225000030E1E6E090E1D26000E1E220F501D2697
:1022600010501E221B501D24D96E1C501E20DA6EE9
:10227000DE50DE10D8A43FEF11F041EF11F004EF73
:1022800012F021C01BF022C01CF0D8901B361C3667
:10229000D8901B361C36D8901B361C3623C00FF046
:1022A00024C010F0000E126E530E116E84EC1AF062
:1022B000000E1D6E030E1E6E030E1D26000E1E2246
:1022C0000F501D2610501E221B501D24D96E1C506D
:1022D0001E20DA6E19C0DEFF1AC0DDFF21C01BF020
:1022E00022C01CF0D8901B361C36D8901B361C36EA
:1022F000D8901B361C3623C00FF024C010F0000EFF
:10230000126E530E116E84EC1AF0000E1D6E030E49
:102310001E6E070E1D26000E1E220F501D26105089
:102320001E221B501D24D96E1C501E20DA6E4BC07D
:10233000DEFF4CC0DDFF21C01BF022C01CF0D89096
:102340001B361C36D8901B361C36D8901B361C36D4
:1023500023C00FF024C010F0000E126E530E116E49
:1023600084EC1AF0000E1D6E030E1E6E090E1D2663
:10237000000E1E220F501D2610501E221B501D2421
:10238000D96E1C501E20DA6E010EDE6E000EDD6E60
:1023900023C00FF024C010F0000E126E530E116E09
:1023A00084EC1AF0530E0F24D96E030E1020DA6E4F
:1023B000DE06000EDD5A23EE00F0DE06000EDD5ACA
:1023C00023C00FF024C010F0000E126E530E116ED9
:1023D00084EC1AF0020E0F24D96E030E1020DA6E70
:1023E00015C0E1FF16C0E2FFDFCFE7FF17C0D9FF3E
:1023F00018C0DAFF21C0DEFF22C0DDFF000E166E1E
:10240000010E156E28EF12F0214A222A22BE12EF89
:1024100012F0225009E10A0E215CD8A012EF12F04E
:1024200014EF12F0ABEF10F0234A242A24BE22EF5F
:1024300012F0245009E1040E235CD8A022EF12F020
:1024400024EF12F0A7EF10F0000E166E000E156EBE
:102450001200000E1E6E000E1F6E000E206E325017
:102460003310D8A436EF12F038EF12F0A8EF12F0C4
:102470008AC023F08BC024F0030E126EE80E116E9A
:1024800023C00FF024C010F0B7EC19F00FC016F005
:1024900010C017F0000E196E0A0E186EF1EC19F04C
:1024A000010E1624F66E100E1720F76E0800F5CFF9
:1024B0001DF0000E126E640E116E23C00FF024C0CA
:1024C00010F0B7EC19F00FC016F010C017F0000EA6
:1024D000196E0A0E186EF1EC19F0010E1624F66E44
:1024E000100E1720F76E0800F5CF1EF0000E126ECA
:1024F0000A0E116E23C00FF024C010F0B7EC19F0D3
:102500000FC016F010C017F0000E196E0A0E186EEC
:10251000F1EC19F0010E1624F66E100E1720F76E6E
:102520000800F5CF1FF023C016F024C017F0000EEE
:10253000196E0A0E186EF1EC19F0010E1624F66EE3
:10254000100E1720F76E0800F5CF20F0F0EF12F014
:102550003CC00FF03DC010F0000E126E530E116E15
:1025600084EC1AF0530E0F24D96E030E1020DA6E8D
:10257000DECF21F0DDCF22F0000E1D6E000E1E6EAC
:10258000000E126E0A0E116E21C00FF022C010F064
:1025900090EC16F00FC017F010C018F0000E1A6E75
:1025A0000A0E196EF2EC16F0010E1724F66E100EDC
:1025B0001820F76E0800F5CF1FF021C017F022C0D9
:1025C00018F0000E1A6E0A0E196EF2EC16F0010EDB
:1025D0001724F66E100E1820F76E0800F5CF20F0C5
:1025E000344A352A34043510D8A4F9EF12F0FBEF41
:1025F00012F003EF13F090969094909290801DC08B
:1026000091FF3DEF13F0020E34183510D8A40BEFF4
:1026100013F00DEF13F015EF13F090969094908255
:1026200090901EC091FF3DEF13F0030E341835104B
:10263000D8A41DEF13F01FEF13F027EF13F09096BF
:102640009084909290901FC091FF3DEF13F0040E84
:1026500034183510D8A42FEF13F031EF13F03DEFFD
:1026600013F0908690949092909020C091FF000E6D
:10267000356E000E346E3DEF13F01200000E226E28
:10268000000E216E000E246E000E236E23C01BF080
:1026900024C01CF0D8901B361C36D8901B361C3634
:1026A000D8901B361C3621C00FF022C010F0000E4F
:1026B000126E530E116E84EC1AF0000E1D6E030E96
:1026C0001E6E030E1D26000E1E220F501D261050DA
:1026D0001E221B501D24D96E1C501E20DA6E19506C
:1026E000DE1807E11A50DE18D8A479EF13F07BEF5B
:1026F00013F0D1EF13F023C01BF024C01CF0D890CE
:102700001B361C36D8901B361C36D8901B361C3610
:1027100021C00FF022C010F0000E126E530E116E89
:1027200084EC1AF0000E1D6E030E1E6E050E1D26A3
:10273000000E1E220F501D2610501E221B501D245D
:10274000D96E1C501E20DA6EDE04DE10D8A4ABEF6A
:1027500013F0ADEF13F0D1EF13F021C00FF022C052
:1027600010F0000E126E530E116E84EC1AF0020E71
:102770000F24D96E030E1020DA6E15C0E1FF16C0CB
:10278000E2FFDFCFE7FF17C0D9FF18C0DAFF23C091
:10279000DEFF24C0DDFF000E166E010E156EF5EF94
:1027A00013F0234A242A24BEDFEF13F0245009E15A
:1027B0000A0E235CD8A0DFEF13F0E1EF13F046EF31
:1027C00013F0214A222A22BEEFEF13F0225009E132
:1027D000040E215CD8A0EFEF13F0F1EF13F042EFFD
:1027E00013F0000E166E000E156E1200000E226E13
:1027F000000E216E000E246E000E236E23C01BF00F
:1028000024C01CF0D8901B361C36D8901B361C36C2
:10281000D8901B361C3621C00FF022C010F0000EDD
:10282000126E530E116E84EC1AF0000E1D6E030E24
:102830001E6E030E1D26000E1E220F501D26105068
:102840001E221B501D24D96E1C501E20DA6E1550FE
:10285000DE1807E11650DE18D8A431EF14F033EF7C
:1028600014F085EF14F023C01BF024C01CF0D890A6
:102870001B361C36D8901B361C36D8901B361C369F
:1028800021C00FF022C010F0000E126E530E116E18
:1028900084EC1AF0000E1D6E030E1E6E090E1D262E
:1028A000000E1E220F501D2610501E221B501D24EC
:1028B000D96E1C501E20DA6EDE04DE10D8A463EF41
:1028C00014F065EF14F085EF14F021C00FF022C072
:1028D00010F0000E126E530E116E84EC1AF0020E00
:1028E0000F24D96E030E1020DA6E17C0E1FF18C056
:1028F000E2FFDFCFE7FF19C0D9FF1AC0DAFF23C01C
:10290000DEFF24C0DDFFA5EF14F0234A242A24BEF5
:1029100093EF14F0245009E10A0E235CD8A093EF42
:1029200014F095EF14F0FEEF13F0214A222A22BE94
:10293000A3EF14F0225009E1040E215CD8A0A3EF0C
:1029400014F0A5EF14F0FAEF13F01200A5EC1AF052
:1029500097EC1AF02AEC16F0000188518911D8B4CE
:10296000B4EF14F0B6EF14F0BCEF14F0000E896F62
:10297000000E886FC0EC15F0000186518711D8B4A5
:10298000C4EF14F0C6EF14F0CCEF14F0000E876F14
:10299000000E866F4AEC17F03A503B10D8B4D3EFD4
:1029A00014F0D5EF14F0ACEF14F0000E3B6E000EF7
:1029B0003A6E404A412A050E4B26000E4C223E4AF2
:1029C0003F2A640E40184110D8A4E9EF14F0EBEF51
:1029D00014F0F1EF14F0000E416E000E406E82EC28
:1029E00018F0140E3E183F10D8A4F9EF14F0FBEFC6
:1029F00014F004EF15F0000E3F6E000E3E6E000E58
:102A00000001876F010E866F000184518511D8B4D3
:102A10000CEF15F00EEF15F031EF15F0000E856F8D
:102A2000000E846F4904D8A418EF15F01AEF15F0C2
:102A30002FEF15F04850D8A420EF15F022EF15F035
:102A40002FEF15F032503310D8B429EF15F02CEFDA
:102A500015F0010E2DEF15F0000E326E336A48C0EE
:102A600049F029EC12F0ACEF14F007EF00F006008B
:102A7000E1CF0AF0E2CF0BF0D9CF0CF0DACF0DF0B6
:102A8000F2A445EF15F047EF15F059EF15F0F29469
:102A90003C0ED76EAF0ED66E46504710D8B453EFEB
:102AA00015F055EF15F059EF15F0000E3B6E010EC5
:102AB0003A6EF2A05EEF15F060EF15F071EF15F0D1
:102AC000F2A665EF15F067EF15F071EF15F0F290D3
:102AD000000E81B8010E486E000E0001856F010ED8
:102AE000846F9EAA76EF15F078EF15F091EF15F050
:102AF000B5EC1AF0AECF0EF0000E016E0E507CEC6D
:102B000019F0B2EC1AF0230E0E18D8A48AEF15F0C3
:102B10008CEF15F091EF15F0000E0001896F010E9A
:102B2000886F9EA896EF15F098EF15F0B6EF15F0A8
:102B3000010E44EC1AF001500210D8B4A2EF15F0C7
:102B4000A4EF15F0AEEF15F0ACA2A9EF15F0ABEFC6
:102B500015F0B6EF15F0AC9AB6EF15F0B5EC1AF02B
:102B6000010E37EC18F0AD6EB2EC1AF00DC0DAFFC2
:102B70000CC0D9FF0BC0E2FF0AC0E1FF4D9211006B
:102B80001DEF16F0AFEC1AF0000EECEC17F02D6E06
:102B9000ACEC1AF0240E2D18D8A4D1EF15F0D3EF19
:102BA00015F0DDEF15F0000E2F6E010E2E6E000EEB
:102BB000316E000E306E1DEF16F0230E2D18D8A4C6
:102BC000E4EF15F0E6EF15F0FFEF15F02E502F10A3
:102BD000D8B4EDEF15F0EFEF15F0FFEF15F08C0E18
:102BE0003024D96E000E3120DA6E000EDF6E10EC4C
:102BF00008F0000E2F6E000E2E6EC0EF15F02E5056
:102C00002F10D8B406EF16F008EF16F0C0EF15F04D
:102C1000315007E1130E305CD8B011EF16F013EF0E
:102C200016F0C0EF15F08C0E3024D96E000E312056
:102C3000DA6E2DC0DFFF304A312A000E23EC1AF085
:102C40000F501010D8B427EF16F029EF16F0C2EF8E
:102C500015F01200F28CF28EF28AF286000E4C6EA3
:102C6000000E4B6E880ED56E3C0ED76EAF0ED66E34
:102C7000040EAC6E900EAB6E7E86000E7F6E560E0E
:102C8000AF6E000E166E000E156E15C00FF016C05A
:102C900010F0000E126E530E116E84EC1AF0020E3C
:102CA0000F24D96E030E1020DA6E1550410FDF6E1F
:102CB00015C00FF016C010F0000E126E530E116EFC
:102CC00084EC1AF0530E0F24D96E030E1020DA6E26
:102CD0000A0EDE6E000EDD6E154A162A16BE7AEF5B
:102CE00016F0165009E1040E155CD8A07AEF16F024
:102CF0007CEF16F045EF16F0280EE8CF00F3000E3B
:102D0000E8CF01F3000E0001816F000E806F000E0E
:102D1000836F000E826F9D889D8A000E9E6E12004A
:102D2000000E146E12BE99EF16F097EF16F09FEF9B
:102D300016F0116C121ED8B0122A010E146E10BEBD
:102D4000A6EF16F0A4EF16F0ACEF16F00F6C101E05
:102D5000D8B0102A010E141A000E166E000E156E51
:102D600011501210D8B4B7EF16F0B9EF16F0E1EF2A
:102D700016F0010E136EC1EF16F0D8901136123610
:102D8000132A12AEC6EF16F0C8EF16F0BDEF16F01C
:102D9000D8901536163611500F5C12501058D8A026
:102DA000D4EF16F0D6EF16F0DBEF16F011500F5EF1
:102DB0001250105A1580D89012321132132EC8EFCB
:102DC00016F01450D8B4E7EF16F0E9EF16F0EDEF77
:102DD00016F0156C161ED8B0162A15C00FF016C0C6
:102DE00010F01200000E1C6E18BEFBEF16F0F9EF8B
:102DF00016F001EF17F0176C181ED8B0182A010E44
:102E00001C6E1ABE08EF17F006EF17F00CEF17F064
:102E1000196C1A1ED8B01A2A19501A10D8B413EF08
:102E200017F015EF17F039EF17F0010E1B6E1DEFBD
:102E300017F0D89019361A361B2A1AAE22EF17F05F
:102E400024EF17F019EF17F01950175C1A501858A3
:102E5000D8A02DEF17F02FEF17F033EF17F0195020
:102E6000175E1A50185AD8901A3219321B2E24EFB6
:102E700017F01C50D8B43FEF17F041EF17F045EFB3
:102E800017F0176C181ED8B0182A17C017F018C002
:102E900018F0120036503710D8B451EF17F053EF36
:102EA00017F05AEF17F0AC8A000E376E000E366E30
:102EB0009EEF17F0010E1D6E240E41EC19F0010E6D
:102EC0001D6E450E41EC19F0010E1D6E4D0E41ECCC
:102ED00019F0010E1D6E500E41EC19F0010E1D6E21
:102EE000000E126E0A0E116E00C30FF001C310F037
:102EF00090EC16F00FC017F010C018F0000E1A6E0C
:102F00000A0E196EF2EC16F01750300F41EC19F062
:102F1000010E1D6E00C317F001C318F0000E1A6EEB
:102F20000A0E196EF2EC16F01750300F41EC19F042
:102F3000010E1D6E230E41EC19F0AC8A1200000147
:102F400083BFABEF17F0835108E18205D8A0ABEF48
:102F500017F0ADEF17F0E7EF17F060C012F061C0A7
:102F600013F0000E156E010E146ECFEF17F0D8900F
:102F70001434D96E1534DA6E600ED926000EDA22BA
:102F8000D8901434E16E1534E26E5E0EE126000E28
:102F9000E222DECFE6FFDDCFE5FF144A152A82519B
:102FA000145C1550800A116E8351800A1158D8A004
:102FB000DCEF17F0DEEF17F0B7EF17F08207D8A0BD
:102FC000830712C00FF013C010F0EBEF17F0000EE4
:102FD000106E000E0F6E1200176E175023EC1AF0D1
:102FE0000F501010D8B4F7EF17F0F9EF17F0FCEF0F
:102FF00017F0000E36EF18F01750D8A402EF18F0B3
:1030000004EF18F017EF18F0420E1724D96EDA6AA1
:10301000000EDA22DF50146E156A000E1424D96EE9
:10302000010E1520DA6EDF50166E28EF18F0420EF2
:103030001724D96EDA6A000EDA22DF50146E156A90
:10304000000E1424D96E020E1520DA6EDF50166EB3
:10305000420E1724D96EDA6A000EDA22DF2A420EF7
:103060001724D96EDA6A000EDA2216501200096EA1
:10307000095044EC1AF001500210D8B442EF18F095
:1030800044EF18F047EF18F0000E81EF18F00950E8
:10309000D8A44DEF18F04FEF18F062EF18F0420E81
:1030A0000924D96EDA6A000EDA22DF50066E076A4A
:1030B000000E0624D96E010E0720DA6EDF50086E6E
:1030C00073EF18F0420E0924D96EDA6A000EDA2284
:1030D000DF50066E076A000E0624D96E020E072026
:1030E000DA6EDF50086E420E0924D96EDA6A000EDD
:1030F000DA22DF2A420E0924D96EDA6A000EDA22B9
:1031000008501200C282C2B288EF18F08AEF18F09D
:1031100083EF18F0C450106E0F6AC3500F24116E65
:10312000000E1020126E1204D8B099EF18F09BEF29
:1031300018F0A1EF18F0000E3D6E000E3C6EC3EFCC
:1031400018F0020E125CD8B0A8EF18F0AAEF18F031
:10315000B0EF18F0000E3D6E010E3C6EC3EF18F09C
:10316000030E125CD8B0B7EF18F0B9EF18F0BFEF4C
:1031700018F0000E3D6E020E3C6EC3EF18F0000E0C
:103180003D6E030E3C6E1200700EF66E350EF76E3D
:10319000000EF86E0900F5CF4BF00900F5CF4CF0AA
:1031A00003EE00F011EE4EF0EE6AE550E150FCE166
:1031B000E250FAE102EE00F011EE00F0EE6AE550A6
:1031C000E150FCE1E250FAE101EE00F011EE00F016
:1031D000EE6AE550E150FCE1E250FAE100EE60F009
:1031E000400EEE6AE806FDE100EE2EF01D0EEE6ADE
:1031F000E806FDE14D904D92000EF86E100EF76E50
:103200000001A6EF14F0000E196E000E186E2DEFDF
:1032100019F018500F24D96E19501020DA6EDF50B3
:10322000156E18501124166E19501220176E16C004
:10323000F6FF17C0F7FF0800F5501518D8B423EFB4
:1032400019F025EF19F02BEF19F0000E106E000E9B
:103250000F6E40EF19F0184A192A1350185C1950D4
:10326000800A156E1450800A1558D8A03AEF19F04C
:103270003CEF19F009EF19F0000E106E010E0F6E01
:103280001200206E1D50D8A448EF19F04AEF19F033
:103290005DEF19F0440E1D24D96EDA6A000EDA22B1
:1032A000DF501E6E1F6A000E1E24D96E010E1F20F5
:1032B000DA6E20C0DFFF6EEF19F0440E1D24D96EC8
:1032C000DA6A000EDA22DF501E6E1F6A000E1E241C
:1032D000D96E020E1F20DA6E20C0DFFF440E1D24BF
:1032E000D96EDA6A000EDA22DF2A440E1D24D96E66
:1032F000DA6A000EDA221200046E0150D8A483EFBD
:1033000019F085EF19F098EF19F0440E0124D96EE9
:10331000DA6A000EDA22DF50026E036A000E02241F
:10332000D96E010E0320DA6E04C0DFFFA9EF19F099
:10333000440E0124D96EDA6A000EDA22DF50026EE2
:10334000036A000E0224D96E020E0320DA6E04C056
:10335000DFFF440E0124D96EDA6A000EDA22DF2A7A
:10336000440E0124D96EDA6A000EDA221200000E31
:10337000156E000E146E11501210D8B4C2EF19F071
:10338000C4EF19F0ECEF19F0010E136ECCEF19F049
:10339000D89011361236132A12AED1EF19F0D3EFAE
:1033A00019F0C8EF19F0D8901436153611500F5C8B
:1033B00012501058D8A0DFEF19F0E1EF19F0E6EF46
:1033C00019F011500F5E1250105A1480D89012321A
:1033D0001132132ED3EF19F014C00FF015C010F0F6
:1033E000120018501910D8B4F8EF19F0FAEF19F0CC
:1033F0001EEF1AF0010E1A6E02EF1AF0D89018366E
:1034000019361A2A19AE07EF1AF009EF1AF0FEEF73
:1034100019F01850165C19501758D8A012EF1AF06E
:1034200014EF1AF018EF1AF01850165E1950175AC8
:10343000D890193218321A2E09EF1AF016C016F069
:1034400017C017F01200136E420E1324D96EDA6AF9
:10345000000EDA22440E1324E16EE26A000EE2222C
:10346000DE50E618D8A437EF1AF039EF1AF03FEF24
:103470001AF0000E106E010E0F6E43EF1AF0000EE0
:10348000106E000E0F6E1200056E420E0524D96EEE
:10349000DA6A000EDA22440E0524E16EE26A000EBA
:1034A000E222DE50E618D8A458EF1AF05AEF1AF0CC
:1034B00060EF1AF0000E026E010E016E64EF1AF05A
:1034C000000E026E000E016E1200000183BF74EF49
:1034D0001AF0835107E1100E825DD8B072EF1AF036
:1034E00074EF1AF083EF1AF0D8908235D96E8335D5
:1034F000DA6E600ED926000EDA220FC0DEFF10C091
:10350000DDFF824B832B12000F501102F3CF13F01B
:10351000F4CF14F00F501202F35014261050110281
:10352000F350142613C00FF014C010F01200C25054
:10353000C30B3009C26EC280000EC16EA60EC06EF3
:10354000000EC46E000EC36E1200100E936E100EAD
:10355000996E000E9A6E12009D8A9D8812009D9AA7
:103560009D981200F28EF28C1200F29EF29C1200D4
:02357000050054
:020000040020DA
:08000000FFFFFFFFFFFFFFFF00
:020000040030CA
:0E000000FF06191EF38301FFFFC0FFE0FF4063
:00000001FF
